{
  "contractName": "Demande",
  "abi": [
    {
      "inputs": [],
      "stateMutability": "nonpayable",
      "type": "constructor"
    },
    {
      "anonymous": false,
      "inputs": [
        {
          "indexed": true,
          "internalType": "uint256",
          "name": "requestId",
          "type": "uint256"
        },
        {
          "indexed": false,
          "internalType": "string",
          "name": "nom",
          "type": "string"
        },
        {
          "indexed": false,
          "internalType": "string",
          "name": "prenom",
          "type": "string"
        },
        {
          "indexed": false,
          "internalType": "string",
          "name": "typeDemande",
          "type": "string"
        },
        {
          "indexed": false,
          "internalType": "string",
          "name": "resultat",
          "type": "string"
        },
        {
          "indexed": false,
          "internalType": "string",
          "name": "dateSubmission",
          "type": "string"
        },
        {
          "indexed": false,
          "internalType": "string",
          "name": "dateStart",
          "type": "string"
        },
        {
          "indexed": false,
          "internalType": "string",
          "name": "dateFinish",
          "type": "string"
        },
        {
          "indexed": false,
          "internalType": "uint256",
          "name": "cin",
          "type": "uint256"
        }
      ],
      "name": "REQUESTS_ADD_LOGGERS",
      "type": "event"
    },
    {
      "inputs": [
        {
          "internalType": "uint256",
          "name": "",
          "type": "uint256"
        }
      ],
      "name": "REG_64_BIT",
      "outputs": [
        {
          "internalType": "string",
          "name": "Admin",
          "type": "string"
        },
        {
          "internalType": "string",
          "name": "NOM",
          "type": "string"
        },
        {
          "internalType": "string",
          "name": "PRENOM",
          "type": "string"
        },
        {
          "internalType": "string",
          "name": "TYPE_DEMANDE",
          "type": "string"
        },
        {
          "internalType": "string",
          "name": "RESULTAT",
          "type": "string"
        },
        {
          "internalType": "string",
          "name": "DATE_SUBMISSION",
          "type": "string"
        },
        {
          "internalType": "string",
          "name": "DATE_START",
          "type": "string"
        },
        {
          "internalType": "string",
          "name": "DATE_FINISH",
          "type": "string"
        },
        {
          "internalType": "uint256",
          "name": "CIN",
          "type": "uint256"
        }
      ],
      "stateMutability": "view",
      "type": "function",
      "constant": true
    },
    {
      "inputs": [],
      "name": "nextRequestId",
      "outputs": [
        {
          "internalType": "uint256",
          "name": "",
          "type": "uint256"
        }
      ],
      "stateMutability": "view",
      "type": "function",
      "constant": true
    },
    {
      "inputs": [
        {
          "internalType": "string",
          "name": "nom",
          "type": "string"
        },
        {
          "internalType": "string",
          "name": "Admin",
          "type": "string"
        },
        {
          "internalType": "string",
          "name": "prenom",
          "type": "string"
        },
        {
          "internalType": "string",
          "name": "typeDemande",
          "type": "string"
        },
        {
          "internalType": "string",
          "name": "resultat",
          "type": "string"
        },
        {
          "internalType": "string",
          "name": "dateSubmission",
          "type": "string"
        },
        {
          "internalType": "string",
          "name": "dateStart",
          "type": "string"
        },
        {
          "internalType": "string",
          "name": "dateFinish",
          "type": "string"
        },
        {
          "internalType": "uint256",
          "name": "cin",
          "type": "uint256"
        }
      ],
      "name": "SUBMIT_REQUEST",
      "outputs": [],
      "stateMutability": "nonpayable",
      "type": "function"
    }
  ],
  "bytecode": "0x608060405234801561001057600080fd5b5060018081905550610e44806100276000396000f3fe608060405234801561001057600080fd5b50600436106100415760003560e01c806329f5c215146100465780636a84a9851461007e578063e748a8381461009c575b600080fd5b610060600480360381019061005b91906107f4565b6100b8565b604051610075999897969594939291906108c9565b60405180910390f35b610086610546565b604051610093919061098e565b60405180910390f35b6100b660048036038101906100b19190610ade565b61054c565b005b60006020528060005260406000206000915090508060000180546100db90610cb7565b80601f016020809104026020016040519081016040528092919081815260200182805461010790610cb7565b80156101545780601f1061012957610100808354040283529160200191610154565b820191906000526020600020905b81548152906001019060200180831161013757829003601f168201915b50505050509080600101805461016990610cb7565b80601f016020809104026020016040519081016040528092919081815260200182805461019590610cb7565b80156101e25780601f106101b7576101008083540402835291602001916101e2565b820191906000526020600020905b8154815290600101906020018083116101c557829003601f168201915b5050505050908060020180546101f790610cb7565b80601f016020809104026020016040519081016040528092919081815260200182805461022390610cb7565b80156102705780601f1061024557610100808354040283529160200191610270565b820191906000526020600020905b81548152906001019060200180831161025357829003601f168201915b50505050509080600301805461028590610cb7565b80601f01602080910402602001604051908101604052809291908181526020018280546102b190610cb7565b80156102fe5780601f106102d3576101008083540402835291602001916102fe565b820191906000526020600020905b8154815290600101906020018083116102e157829003601f168201915b50505050509080600401805461031390610cb7565b80601f016020809104026020016040519081016040528092919081815260200182805461033f90610cb7565b801561038c5780601f106103615761010080835404028352916020019161038c565b820191906000526020600020905b81548152906001019060200180831161036f57829003601f168201915b5050505050908060050180546103a190610cb7565b80601f01602080910402602001604051908101604052809291908181526020018280546103cd90610cb7565b801561041a5780601f106103ef5761010080835404028352916020019161041a565b820191906000526020600020905b8154815290600101906020018083116103fd57829003601f168201915b50505050509080600601805461042f90610cb7565b80601f016020809104026020016040519081016040528092919081815260200182805461045b90610cb7565b80156104a85780601f1061047d576101008083540402835291602001916104a8565b820191906000526020600020905b81548152906001019060200180831161048b57829003601f168201915b5050505050908060070180546104bd90610cb7565b80601f01602080910402602001604051908101604052809291908181526020018280546104e990610cb7565b80156105365780601f1061050b57610100808354040283529160200191610536565b820191906000526020600020905b81548152906001019060200180831161051957829003601f168201915b5050505050908060080154905089565b60015481565b60006040518061012001604052808a81526020018b815260200189815260200188815260200187815260200186815260200185815260200184815260200183815250905080600080600154815260200190815260200160002060008201518160000190805190602001906105c1929190610707565b5060208201518160010190805190602001906105de929190610707565b5060408201518160020190805190602001906105fb929190610707565b506060820151816003019080519060200190610618929190610707565b506080820151816004019080519060200190610635929190610707565b5060a0820151816005019080519060200190610652929190610707565b5060c082015181600601908051906020019061066f929190610707565b5060e082015181600701908051906020019061068c929190610707565b5061010082015181600801559050506001547fc7aacbffe91a94724767b472c6a91f5732376d45e44f5181663f171d79eaca028b8a8a8a8a8a8a8a6040516106db989796959493929190610ce8565b60405180910390a2600160008154809291906106f690610dc6565b919050555050505050505050505050565b82805461071390610cb7565b90600052602060002090601f016020900481019282610735576000855561077c565b82601f1061074e57805160ff191683800117855561077c565b8280016001018555821561077c579182015b8281111561077b578251825591602001919060010190610760565b5b509050610789919061078d565b5090565b5b808211156107a657600081600090555060010161078e565b5090565b6000604051905090565b600080fd5b600080fd5b6000819050919050565b6107d1816107be565b81146107dc57600080fd5b50565b6000813590506107ee816107c8565b92915050565b60006020828403121561080a576108096107b4565b5b6000610818848285016107df565b91505092915050565b600081519050919050565b600082825260208201905092915050565b60005b8381101561085b578082015181840152602081019050610840565b8381111561086a576000848401525b50505050565b6000601f19601f8301169050919050565b600061088c82610821565b610896818561082c565b93506108a681856020860161083d565b6108af81610870565b840191505092915050565b6108c3816107be565b82525050565b60006101208201905081810360008301526108e4818c610881565b905081810360208301526108f8818b610881565b9050818103604083015261090c818a610881565b905081810360608301526109208189610881565b905081810360808301526109348188610881565b905081810360a08301526109488187610881565b905081810360c083015261095c8186610881565b905081810360e08301526109708185610881565b90506109806101008301846108ba565b9a9950505050505050505050565b60006020820190506109a360008301846108ba565b92915050565b600080fd5b600080fd5b7f4e487b7100000000000000000000000000000000000000000000000000000000600052604160045260246000fd5b6109eb82610870565b810181811067ffffffffffffffff82111715610a0a57610a096109b3565b5b80604052505050565b6000610a1d6107aa565b9050610a2982826109e2565b919050565b600067ffffffffffffffff821115610a4957610a486109b3565b5b610a5282610870565b9050602081019050919050565b82818337600083830152505050565b6000610a81610a7c84610a2e565b610a13565b905082815260208101848484011115610a9d57610a9c6109ae565b5b610aa8848285610a5f565b509392505050565b600082601f830112610ac557610ac46109a9565b5b8135610ad5848260208601610a6e565b91505092915050565b60008060008060008060008060006101208a8c031215610b0157610b006107b4565b5b60008a013567ffffffffffffffff811115610b1f57610b1e6107b9565b5b610b2b8c828d01610ab0565b99505060208a013567ffffffffffffffff811115610b4c57610b4b6107b9565b5b610b588c828d01610ab0565b98505060408a013567ffffffffffffffff811115610b7957610b786107b9565b5b610b858c828d01610ab0565b97505060608a013567ffffffffffffffff811115610ba657610ba56107b9565b5b610bb28c828d01610ab0565b96505060808a013567ffffffffffffffff811115610bd357610bd26107b9565b5b610bdf8c828d01610ab0565b95505060a08a013567ffffffffffffffff811115610c0057610bff6107b9565b5b610c0c8c828d01610ab0565b94505060c08a013567ffffffffffffffff811115610c2d57610c2c6107b9565b5b610c398c828d01610ab0565b93505060e08a013567ffffffffffffffff811115610c5a57610c596107b9565b5b610c668c828d01610ab0565b925050610100610c788c828d016107df565b9150509295985092959850929598565b7f4e487b7100000000000000000000000000000000000000000000000000000000600052602260045260246000fd5b60006002820490506001821680610ccf57607f821691505b602082108103610ce257610ce1610c88565b5b50919050565b6000610100820190508181036000830152610d03818b610881565b90508181036020830152610d17818a610881565b90508181036040830152610d2b8189610881565b90508181036060830152610d3f8188610881565b90508181036080830152610d538187610881565b905081810360a0830152610d678186610881565b905081810360c0830152610d7b8185610881565b9050610d8a60e08301846108ba565b9998505050505050505050565b7f4e487b7100000000000000000000000000000000000000000000000000000000600052601160045260246000fd5b6000610dd1826107be565b91507fffffffffffffffffffffffffffffffffffffffffffffffffffffffffffffffff8203610e0357610e02610d97565b5b60018201905091905056fea2646970667358221220cccc2d3a5bada86a0a0c8e09d6ee7f8bf67be8987771334b6cae1ffc2d809c4c64736f6c634300080d0033",
  "immutableReferences": {},
  "source": "// SPDX-License-Identifier: MIT\r\npragma solidity ^0.8.0;\r\n\r\ncontract Demande {\r\n    struct DEMANDE_CHANGE {\r\n        string Admin;\r\n        string NOM;\r\n        string PRENOM;\r\n        string TYPE_DEMANDE;\r\n        string RESULTAT;\r\n        string DATE_SUBMISSION;\r\n        string DATE_START;\r\n        string DATE_FINISH;\r\n        uint CIN;\r\n    }\r\n\r\n    mapping(uint => DEMANDE_CHANGE) public REG_64_BIT;\r\n    uint public nextRequestId;\r\n\r\n    event REQUESTS_ADD_LOGGERS(uint indexed requestId, string nom, string prenom, string typeDemande, string resultat, string dateSubmission, string dateStart, string dateFinish, uint cin);\r\n\r\n    constructor() {\r\n        nextRequestId = 1; // Initialize nextRequestId to 1\r\n    }\r\n\r\n    function SUBMIT_REQUEST(string memory nom, string memory Admin, string memory prenom, string memory typeDemande, string memory resultat, string memory dateSubmission, string memory dateStart, string memory dateFinish, uint cin) public {\r\n        DEMANDE_CHANGE memory NEW_REQUEST_SUBMITTED = DEMANDE_CHANGE(Admin, nom, prenom, typeDemande, resultat, dateSubmission, dateStart, dateFinish, cin);\r\n        REG_64_BIT[nextRequestId] = NEW_REQUEST_SUBMITTED;\r\n        emit REQUESTS_ADD_LOGGERS(nextRequestId, nom, prenom, typeDemande, resultat, dateSubmission, dateStart, dateFinish, cin);\r\n        nextRequestId++;\r\n    }\r\n\r\n}\r\n",
  "sourcePath": "C:\\RESTAPI\\contracts\\Demande.sol",
  "compiler": {
    "name": "solc",
    "version": "0.8.13+commit.abaa5c0e.Emscripten.clang"
  },
  "schemaVersion": "3.4.16",
  "updatedAt": "2024-04-06T05:30:00.822Z",
  "networkType": "ethereum",
  "devdoc": {
    "kind": "dev",
    "methods": {},
    "version": 1
  },
  "userdoc": {
    "kind": "user",
    "methods": {},
    "version": 1
  }
}